S00C00004C6162362E73726563D3
S11300000C9434000C9451000C9451000C94510045
S11300100C9451000C9451000C9451000C94510018
S11300200C9451000C9451000C9451000C94510008
S11300300C9451000C9451000C9451000C945100F8
S11300400C9451000C9451000C94A4000C94510095
S11300500C9451000C9451000C9451000C945100D8
S11300600C9451000C94510011241FBECFEFD8E022
S1130070DEBFCDBF11E0A0E0B1E0EEE9F1E002C0E7
S113008005900D92A231B107D9F721E0A2E1B1E0C8
S113009001C01D92A331B207E1F70E9490000C94B5
S11300A0CD000C9400008AB18E7F8AB98AB1826037
S11300B08AB9E0ECF0E01082808182608083E1EC18
S11300C0F0E01082808188698083E2ECF0E01082A5
S11300D080818660808382E290E09093C500809363
S11300E0C40008959091C00095FFFCCF8093C60092
S11300F00895AC0120E007C09091C00095FFFCCFAB
S11301003093C6002F5FFA01E20FF11D30813111E7
S1130110F3CF8AE00E9472008DE00E94720008957D
S11301200E9453008AB18C6F8AB984B1836084B908
S1130130789480E091E00E9479008BB18C6F8BB948
S113014085B1836085B9FFCF1F920F920FB60F92CE
S113015011248F939F938091C60080931201809104
S1130160C00085FFFCCF809112018093C60080916E
S1130170120190E0880F991F880F991F8BB9809105
S11301801201829586958695837085B99F918F918A
S11101900F900FBE0F901F901895F894FFCF9C
S113019E486F6C61204D756E646F206161616161A1
S10501AE00004B
S9030000FC
