:100000000C9434000C9451000C9451000C94510049
:100010000C9451000C9451000C9451000C9451001C
:100020000C9451000C9451000C9451000C9451000C
:100030000C9451000C9451000C9451000C945100FC
:100040000C9451000C9451000C9439010C94510003
:100050000C9451000C944C010C9451000C945100E0
:100060000C9451000C94510011241FBECFEFD8E026
:10007000DEBFCDBF11E0A0E0B1E0E0E9F8E002C0F2
:1000800005900D92AE3BB107D9F721E0AEEBB1E0A0
:1000900001C01D92A13CB207E1F70E94CD000C9473
:1000A00046040C9400008AB18E7F8AB98AB18260BE
:1000B0008AB9E0ECF0E01082808182608083E1EC1C
:1000C000F0E01082808188698083E2ECF0E01082A9
:1000D00080818660808382E290E09093C500809367
:1000E000C40008959091C00095FFFCCF8093C60096
:1000F0000895AC0120E007C09091C00095FFFCCFAF
:100100003093C6002F5FFA01E20FF11D30813111EB
:10011000F3CF8AE00E9472008DE00E947200089581
:1001200084E891E00E94790080E091E00E947900EB
:1001300084E891E00E9479008AE391E00E947900CE
:1001400084E891E00E94790080E591E00E947900C6
:1001500084E891E00E9479000895ECE7F0E01082D5
:1001600080818064808380818062808380818760D9
:100170008083EAE7F0E0108280E8808380818062FB
:1001800080838081886080838081876080831092F3
:100190007B008081806480830895CF93DF9300D0BB
:1001A00000D01F92CDB7DEB70E9453008AB18C6F8A
:1001B0008AB984B1836084B90E94AD0078948BB110
:1001C00083708BB985B18C7F85B90E949000809136
:1001D000BF018823E1F31092BF018091C0018133F8
:1001E000C9F48091BE011F928F9380E691E09F93A6
:1001F0008F938E010F5F1F4F1F930F930E945C011F
:10020000C8010E9479000F900F900F900F900F90EF
:100210000F90DBCF8091C001823331F583E691E00E
:100220000E94790084E891E00E9479008091BF01EA
:100230008823E1F31092BF018091C00085FFFCCFBD
:100240008091C0018093C6008091C00190E0880F2A
:10025000991F880F991F8BB98091C001829586954F
:100260008695837085B9B1CF85E891E00E947900C9
:10027000ACCF1F920F920FB60F9211248F9381E093
:100280008093BF018091C6008093C0018F910F9031
:100290000FBE0F901F9018951F920F920FB60F92DE
:1002A00011248F93809179008093BE018F910F90DC
:1002B0000FBE0F901F901895AEE0B0E0E2E6F1E0BF
:1002C0000C941D040D891E8986E08C831A83098392
:1002D0008FEF9FE79E838D83AE01475E5F4F6F89EF
:1002E000788DCE0101960E947E01EF81F885E00FA6
:1002F000F11F10822E96E4E00C943904ABE0B0E0DC
:10030000E4E8F1E00C940F046C017B018A01FC012C
:1003100017821682838181FFCCC1CE0101963C01F8
:10032000F6019381F70193FD859193FF81917F0100
:10033000882309F4BAC1853239F493FD859193FF7E
:1003400081917F01853229F4B60190E00E94750306
:10035000E7CF912C212C312CFFE1F315D8F08B3213
:1003600079F038F4803279F08332A1F4232D2061C2
:100370001DC08D3261F0803369F4232D216016C0D9
:10038000832D8260382EE32DE4603E2E2AC0F32DAB
:10039000F8601DC037FC2DC020ED280F2A3040F03A
:1003A0008E32B9F436FC81C1232D2064322E19C05F
:1003B00036FE06C08AE0989E200D1124922E11C0B0
:1003C000EAE02E9E200D1124222EF32DF0623F2E06
:1003D00008C08C3621F4832D8068382E02C0883600
:1003E00041F4F70193FD859193FF81917F01811184
:1003F000B3CF982F9F7D9554933028F40C5F1F4FF7
:100400009FE399830DC0833631F0833771F08335D4
:1004100009F059C021C0F801808189830E5F1F4F08
:1004200088248394912C530113C02801F2E04F0ECD
:10043000511CF801A080B18036FE03C0692D70E028
:1004400002C06FEF7FEFC5010E946A034C01820179
:10045000F32DFF773F2E16C0280122E0420E511CDB
:10046000F801A080B18036FE03C0692D70E002C0A3
:100470006FEF7FEFC5010E945F034C01F32DF06821
:100480003F2E820133FC1BC0822D90E08816990616
:10049000B0F4B60180E290E00E9475032A94F4CF94
:1004A000F50137FC859137FE81915F01B60190E03F
:1004B0000E94750321102A9421E0821A9108811468
:1004C000910471F7E8C0843611F0893641F5F801DE
:1004D00037FE07C060817181828193810C5F1F4F5D
:1004E00008C060817181072E000C880B990B0E5F8C
:1004F0001F4FF32DFF763F2E97FF09C090958095F3
:10050000709561957F4F8F4F9F4FF0683F2E2AE087
:1005100030E0A3010E94B103882E861845C08537BC
:1005200031F4232D2F7EB22E2AE030E025C0932D0A
:10053000997FB92E8F36C1F018F4883579F0B5C09F
:10054000803719F0883721F0B0C0E92FE061BE2E66
:10055000B4FE0DC0FB2DF460BF2E09C034FE0AC0EE
:10056000292F2660B22E06C028E030E005C020E129
:1005700030E002C020E132E0F801B7FE07C0608140
:100580007181828193810C5F1F4F06C060817181F0
:1005900080E090E00E5F1F4FA3010E94B103882E00
:1005A0008618FB2DFF773F2E36FE0DC0232D2E7FA4
:1005B000A22E891458F434FE0BC032FC09C0832DDE
:1005C0008E7EA82E05C0B82CA32C03C0B82C01C069
:1005D000B92CA4FE0FC0FE01E80DF11D808180330F
:1005E00021F49A2D997EA92E09C0A2FE06C0B394CB
:1005F000B39404C08A2D867809F0B394A3FC11C08B
:10060000A0FE06C0B21488F4280C922C9B180EC0D1
:10061000B21460F4B60180E290E00E947503B394D6
:10062000F7CFB21418F42B1802C0982C212CA4FE7A
:1006300010C0B60180E390E00E947503A2FE17C0CF
:10064000A1FC03C088E790E002C088E590E0B60115
:100650000CC08A2D867859F0A1FE02C08BE201C041
:1006600080E2A7FC8DE2B60190E00E947503891438
:1006700038F4B60180E390E00E9475039A94F7CFB6
:100680008A94F301E80DF11D8081B60190E00E948B
:1006900075038110F5CF222009F442CEB60180E225
:1006A00090E00E9475032A94F6CFF6018681978127
:1006B00002C08FEF9FEF2B96E2E10C942B04FC011C
:1006C0000590615070400110D8F7809590958E0F7D
:1006D0009F1F0895FC016150704001900110D8F7F0
:1006E000809590958E0F9F1F08950F931F93CF9322
:1006F000DF93FB01238121FD03C08FEF9FEF2CC00F
:1007000022FF16C046815781248135814217530745
:1007100044F4A081B1819D012F5F3F4F318320833D
:100720008C93268137812F5F3F4F3783268314C0F8
:100730008B01EC01FB010084F185E02D0995892BEB
:10074000E1F6D80116968D919C9117970196179610
:100750009C938E931697CE01DF91CF911F910F91AD
:100760000895FA01AA27283051F1203181F1E89447
:100770006F936E7F6E5F7F4F8F4F9F4FAF4FB1E094
:100780003ED0B4E03CD0670F781F891F9A1FA11D8F
:10079000680F791F8A1F911DA11D6A0F711D811D90
:1007A000911DA11D20D009F468943F912AE0269F55
:1007B00011243019305D3193DEF6CF010895462FB4
:1007C0004770405D4193B3E00FD0C9F7F6CF462F95
:1007D0004F70405D4A3318F0495D31FD40524193FE
:1007E00002D0A9F7EACFB4E0A695979587957795BB
:1007F0006795BA95C9F700976105710508959B0142
:10080000AC010A2E06945795479537952795BA95CA
:10081000C9F7620F731F841F951FA01D08952F92A3
:100820003F924F925F926F927F928F929F92AF9280
:10083000BF92CF92DF92EF92FF920F931F93CF93CD
:10084000DF93CDB7DEB7CA1BDB0B0FB6F894DEBF64
:100850000FBECDBF09942A88398848885F846E848A
:100860007D848C849B84AA84B984C884DF80EE80D4
:10087000FD800C811B81AA81B981CE0FD11D0FB6DD
:10088000F894DEBF0FBECDBFED010895F894FFCF01
:100890004573637269626120656C206EFA6D6572E2
:1008A0006F20636F72726573706F6E6469656E74CA
:1008B000652061206C612061636369F36E206120B3
:1008C000656A6563757461723A00312E204C656506
:1008D0007220706F74656E6369F36D6574726F007A
:1008E000322E20456E76696172204153434949009A
:1008F0002564004573637269626120656C207661CE
:100900006C6F722041534349492061206D616E64D0
:1009100061723A200056616C6F7220696E76E16CEC
:1009200069646F2C20706F72206661766F7220612F
:100930007072656E646120612073656775697220ED
:0E094000696E737472756363696F6E65730020
:00000001FF
